:100000000C946E020C9496020C9496020C94960238
:100010000C9496020C9496020C9496020C94960200
:100020000C9496020C9496020C9423050C94920561
:100030000C9496020C9496020C9496020C949602E0
:100040000C9496020C9496020C9496020C949602D0
:100050000C9496020C9496020C9496020C94C4078D
:100060000C9496020C9496020C9496020C949602B0
:100070000C9496020C9496020C9496020C949602A0
:100080000C9496020C9496020C9496020C94960290
:100090000C9496020C9496020C9496020C94960280
:1000A0000C9496020C94BF0B0C949602000006016F
:1000B0001501260137014A015D01720188019F0186
:1000C000B801D201EE010B022A024B026E0293022A
:1000D000BA02E40210033F037003A403DC03170415
:1000E00055049704DD0427057505C80520067D061F
:1000F000E0064907B8072D08A9082D09B9094D0AD6
:10010000EA0A900B400CFA0CC00D910E6F0F5A10BA
:1001100053115B1272139A14D41520178018F51915
:10012000801B231DDE1EB420A622B524D5F08D141D
:10013000A1C881CFD9F1AF2000F0F89C8E878387CA
:100140008E9CF8F00000FEFF0303030303070EFC80
:10015000F80000FEFF0303030303070EFCF8000092
:10016000FFFF00000000000000FFFF0000FEFF8313
:1001700083838383C7EE7C380000F8FC0E070303FB
:1001800003070EFCF800003F7FE0C08080C0E07FE6
:100190003FFFFF01010101010101FFFF0000FFFF1F
:1001A0000C0C0C0C1C3E77E3C100007FFFC0C0C0EC
:1001B000C0C0E0703F1F00001F3F70E0C0C0C0E043
:1001C000703F1F00007FFFC1C1C1C1C1E3773E1C6A
:1001D00000001F3F70E0C0C0C0E0703F1F00000083
:1001E000000001FFFF0100000020000003001800D4
:1001F000250032003F004C005D006E007F00900043
:10020000AB00B600C200CE00DA00E600F200150135
:1002100021012D0133013F014501570167017201A1
:1002200077017B01A401CD01D401010A111740001F
:100230009F402641FEFC02FC03FC04FC05FC06FC7E
:1002400007FC08FC099F27AB2BAB2EA727AB2BABDA
:1002500027A7FE2CAB30AB2CA730AB33AB30A7FEBF
:100260002EAB32AB2EA729AB2EAB32A7FE2BAB2980
:10027000AB27A722AB27AB2BA7FE27A329A32BA72E
:100280002EAF2CA729A727A722A7FE20A324A327A8
:10029000A72CAF2BA727A724A720A7FE24A327A31B
:1002A0002BA730AF2EA72BA727A724A7FE22A32674
:1002B000A329A72EAF2CA729A726A722A6FEFD03B8
:1002C0000CFD030DFD030EFD030CFD030CFD030FE0
:1002D000FD030EFD020CFC109F484481401E0FA33D
:1002E0004000A3FEFC0B41FD40184747200FA7FE2E
:1002F000FC0B41FD401847472014A7FEFC0B41FDB5
:10030000401847472016A7FEFC0B41FD4018473711
:100310002018A7FEFC0B41FD40184747200FA6FE02
:1003200041FB4C00FC144C05FC144C07FC144C0025
:10033000FC144C00FC144C09FC144C07FC144C003D
:10034000FC169F4000A3403F0FA31BA30FA3FE403A
:1003500000A3403F0FA30FA31BA3FEFD0212FC133B
:10036000FE4000A3403F0FA30FA31BA2FEFD0212FD
:10037000FC15FE9D229E010A1117FD021BFC1EFDAD
:10038000021BFC1F9F401C41F2A3400C41FAA340FA
:100390001A41FDA7FE402841FBA7401A41FDA7FED8
:1003A000FC18FC19FEFD011AFE401641F7A1401A87
:1003B00041F7A1401E41F7A1402241F7A14026414B
:1003C000F7A1402A41F7A1402E41F7A1403241F761
:1003D000A1FE401641F7A1401A41F7A1401E41F786
:1003E000A1402241F7A1402641F7A1402A41F7A1AF
:1003F000402E41F7A1403241F7A0FEFC1AFC18FC48
:100400001CFEFC1AFC18FC1DFE1E1800C038C6E9B4
:10041000ADE1D1DDDDE1FDFDFDFDFDFDFDFDFDFD00
:10042000FDF5BDF9C638C215020041060808C848E6
:1004300048D000F81FDF5F5F9F3FFF18C05048089B
:10044000080808666100082050885020038139435D
:10045000988A888B88898A888A889B423A034012C6
:100460003810000200080B0002020200000904001C
:100470000001020200000524001001052401010111
:10048000042402060524060001070581031000402C
:1004900009040100020A00000007050202400000F2
:1004A000070583024000000403090412010002EF63
:1004B00002014041233680000101020301417264C0
:1004C00075696E6F204C4C430041726475696E6FA4
:1004D000204C656F6E6172646F00900C11241FBE1A
:1004E000CFEFDAE0DEBFCDBF11E0A0E0B1E0E0E8A1
:1004F000F0E202C005900D92AA32B107D9F726E0CA
:10050000AAE2B1E001C01D92AD3CB207E1F712E0F2
:10051000CEE6D2E004C02197FE010E943810CD360D
:10052000D107C9F70E94A50C0C943E100C94000052
:10053000EDECF2E0A0E0B8E000800EBC8111012CEF
:100540001197A0FDFDCF0192B9F70DB40895FC01FC
:100550008091CC02882311F13FB7F89482E0809318
:10056000E9002091F200822F90E01816190614F489
:1005700081E090E0882339F0289844E64093CB024C
:100580004091F1004083222339F02091F2002111A3
:1005900003C02BE62093E8003FBF08958FEF9FEF45
:1005A00008952FB7F89483E08093E9009091E800D4
:1005B000892F807295FF04C09091F20080E4891B1E
:1005C0002FBF08958091C30281110DC082E08093F6
:1005D000BF0284E08093C0021092C2021092C10256
:1005E00081E08093C3028FEB92E00895CF93DF9375
:1005F0001F92CDB7DEB76983DC01ED91FC910280DB
:10060000F381E02D41E050E0BE016F5F7F4F09951F
:100610000F90DF91CF91089583E08093E90080915E
:10062000F200882319F08AE38093E80008950E947D
:10063000D10290E00895CF93DF931F92CDB7DEB73C
:10064000FC018485958597FD08C02FEF3FEF358726
:1006500024870F90DF91CF910895CE0101960E94DB
:10066000A702019719F4898190E0F3CF8FEF9FEFF4
:10067000F0CF0F931F93CF93DF931F92CDB7DEB7C9
:100680008C01FC018485958597FF0BC0CE010196F6
:100690000E94A702019771F4898190E0F801958783
:1006A0008487F801848595850F90DF91CF911F9104
:1006B0000F9108958FEF9FEFF1CFFC018485958511
:1006C00097FD0BC09FB7F89482E08093E90080917A
:1006D000F2009FBF90E0019608959FB7F89482E0E2
:1006E0008093E9008091F2009FBF90E008954091CF
:1006F000690250916A0220916702309168024217A4
:100700005307B4F49091E8009570E1F39091E800FC
:1007100092FD19C08093F1008091690290916A0264
:1007200001968F739927892B19F48EEF8093E80037
:100730008091690290916A02019690936A02809377
:10074000690281E0089580E00895DF92EF92FF92C0
:100750000F931F93CF93DF93D82E8A01EB017B0178
:10076000E40EF51ECE15DF0559F0D7FE12C0FE01CE
:1007700084910E94770321968111F4CF0FEF1FEF30
:10078000C801DF91CF911F910F91FF90EF90DF9003
:1007900008958881EECF0F931F93CF93DF931F921D
:1007A000CDB7DEB782E0898342E450E065E674E0CD
:1007B00080E80E94A5030E94E202DC0112960D91DE
:1007C0001C910115110589F0D801ED91FC91028071
:1007D000F381E02DBE016F5F7F4FC801099597FD42
:1007E00004C0F80100851185ECCF89810F90DF915D
:1007F000CF911F910F910895615030F02091F10039
:10080000FC0120830196F8CF289884E68093CB02E0
:1008100008953FB7F8948091630290916402A0918B
:100820006502B091660226B5A89B05C02F3F19F05E
:100830000196A11DB11D3FBFBA2FA92F982F882760
:10084000BC01CD01620F711D811D911D42E0660F3B
:10085000771F881F991F4A95D1F708958F929F920D
:10086000AF92BF92CF92DF92EF92FF926B017C0129
:100870000E9409044B015C01C114D104E104F1049C
:10088000B9F00E940904681979098A099B09683E30
:1008900073408105910580F321E0C21AD108E10877
:1008A000F10888EE880E83E0981EA11CB11CE4CFED
:1008B000FF90EF90DF90CF90BF90AF909F908F9080
:1008C00008958F929F92AF92BF92CF92DF92EF9254
:1008D000FF920F931F93CF93DF936C017B018A01EB
:1008E00080910F01882309F45CC08091CC02882399
:1008F00009F457C080916E0280FF05C08091E0002E
:1009000082608093E000E801B12C8AEFA82E93E08A
:10091000892E2AE3922E209711F4BB20D9F10E9450
:10092000D10281110AC0AA94AA20D9F161E070E035
:1009300080E090E00E942E04EECF8C171D0611F08F
:100940000CF08C2F9FB7F8948092E9002091E8007A
:1009500025FD02C09FBFDFCF282F30E0C21BD30B85
:10096000F701815020F041914093F100FACFE20E5F
:10097000F31EBB2021F09092E800B12CEBCF8091C8
:10098000E80085FDE7CF9092E800BB24B394209760
:1009900009F3F3CF5D9884E680936D02101611067B
:1009A0003CF081E090E0F6019383828310E000E068
:1009B000C801DF91CF911F910F91FF90EF90DF90D1
:1009C000CF90BF90AF909F908F9008952D9A0895EB
:1009D000BC0190E080E00C942E048FB18095807F64
:1009E000669B88601C9B846008953E9A3F9A089598
:1009F00081E080935B0220917E0130E0EBE2F1E048
:100A000090E080E0A901082E02C0559547950A9410
:100A1000E2F740FF1082019635968430910591F7F8
:100A2000089590E0880F991FE0917B01F0917C017F
:100A3000E80FF91F859194912091790130917A0105
:100A4000820F931F08951F920F920FB60F921124D9
:100A50008F939F938091E1009091E100937F909319
:100A6000E10083FF0FC01092E90091E09093EB004A
:100A70001092EC0092E39093ED001092CC0298E07B
:100A80009093F00082FF22C093E09093E900909150
:100A9000F200992319F09AE39093E80090916D0287
:100AA000992341F090916D02915090936D029111B4
:100AB00001C05D9A9091CB02992341F09091CB02B5
:100AC00091509093CB02911101C0289A84FF18C0D5
:100AD0008091E2008E7E81608093E2008091E1004F
:100AE0008F7E8093E10080916E028E7E8061809384
:100AF0006E029F918F910F900FBE0F901F901895CF
:100B000080FFF7CF8091E2008E7E80618093E200CB
:100B10008091E1008E7E8093E10080916E028E7E56
:100B20008160E5CF1F920F920FB60F921124CF92E2
:100B3000DF92EF92FF920F931F932F933F934F9368
:100B40005F936F937F938F939F93AF93BF93EF9335
:100B5000FF93CF93DF93CDB7DEB76C97DEBFCDBFEA
:100B60001092E9008091E80083FF25C068E0CE0183
:100B700045960E94FC0382EF8093E8008D8987FFF1
:100B800039C09091E80090FFFCCF982F907609F043
:100B900034C19E894F89588D2F89F88C911131C0AD
:100BA000803861F580916C028093F1001092F10021
:100BB0008EEF8093E8006C960FB6F894DEBF0FBE00
:100BC000CDBFDF91CF91FF91EF91BF91AF919F91F9
:100BD0008F917F916F915F914F913F912F911F91D5
:100BE0000F91FF90EF90DF90CF900F900FBE0F907E
:100BF0001F9018959EEF9093E800C7CF1092F100D8
:100C0000D5CF913059F48111D3CF4130510581F6C0
:100C100080916C028D7F80936C02CACF933049F42F
:100C20008111C6CF4130510519F680916C02826066
:100C3000F2CF953041F48091E80080FFFCCF20682E
:100C40002093E300B5CF963009F0A9C00B8D1C8D21
:100C500022E01092E90010926A0210926902F212E8
:100C60002EC010926802109267020E94CB031F826E
:100C700099E09983FA8291E09E8390EA98879AEFAF
:100C800099872091690230916A02275F3F4F3C8328
:100C90002B838D831092E90010926A0210926902F0
:100CA000109368020093670249E050E0BE016F5F55
:100CB0007F4F80E00E94A5030E94CB0379CF109361
:100CC0006802009367020E94E202DC0112960D9115
:100CD0001C910115110509F451C1D801ED91FC9148
:100CE0000480F581E02DBE016B5E7F4FC801099540
:100CF000009709F03EC1F80100851185EACFF3E0C5
:100D0000FF120EC08F89882309F440C0823061F43D
:100D100040E860E189EC94E00E945D0C811148CFCD
:100D200081E28093EB0047CF813029F440E86BE00B
:100D30008DEB94E0F1CF833099F70E94E202DC0161
:100D40001296ED90FC908E010F5F1F4F6801E11429
:100D5000F10479F0D701ED91FC910680F781E02D47
:100D6000B801C7010995080F111DF701E084F1844E
:100D7000EECFD8011C92F60101900020E9F73197DF
:100D8000BF016C197D0940E0C601C6CF67EA74E077
:100D9000FB01449150E080E80E94A50309CF973001
:100DA00009F4BECF983021F481E08093F10000CFA8
:100DB000993009F0FDCE837009F0B2CFE1E1F1E0A6
:100DC00081E031E096E32191222371F08093E900E4
:100DD0003093EB00DF0111972C912093EC0090935E
:100DE000ED008F5F873079F78EE78093EA001092ED
:100DF000EA008F898093CC02DBCE8B8D9C8D109284
:100E0000E90010926A02109269029093680280933E
:100E10006702898D811192C08E899D89913A49F42A
:100E2000813209F07DCF47E050E068E071E080E07A
:100E3000B3CF913209F074CF833269F48F89988DE2
:100E4000B0E0A0E08093040190930501A093060117
:100E5000B0930701ADCE803269F48091E80082FF43
:100E6000FCCF67E088E091E00E94FC038BEF809369
:100E7000E8009ECE823209F09BCE8F8980930F01CD
:100E8000EEEFFFE7859194918B3F9C4D51F1E0E0AF
:100E9000F8E08091080190910901A0910A01B091B8
:100EA0000B01803B9440A105B105F1F480910F0145
:100EB00080FD1AC0EE3F8AE0F80789F587E797E7DB
:100EC000918380838091600080936B0288E19BE036
:100ED0000FB6F894A895809360000FBE90936000C1
:100EE00067CEEEEFFAE0D5CF8081918187379747C3
:100EF00009F05ECEA89580916000886180936000C3
:100F000080916B0280936000EE3F2AE0F20789F047
:100F10008091FE0A9091FF0A9183808349CE80815F
:100F200091818737980751F29093FF0A8093FE0AC8
:100F3000C5CF1092FF0A1092FE0A3ACE0E94E2023A
:100F4000DC0112960D911C910115110509F4E8CEF2
:100F5000D801ED91FC910190F081E02DBE016B5E16
:100F60007F4FC8010995811123CEF80100851185B5
:100F7000EBCF181619060CF41BCED2CEF1E0FF12FF
:100F8000BECE6BEA74E004CF1F920F920FB60F92A1
:100F900011242F933F938F939F93AF93BF9380918F
:100FA0005F0290916002A0916102B0916202309163
:100FB0005E0223E0230F2D3758F50196A11DB11DC8
:100FC00020935E0280935F0290936002A09361027F
:100FD000B09362028091630290916402A0916502D5
:100FE000B09166020196A11DB11D8093630290939A
:100FF0006402A0936502B0936602BF91AF919F9186
:101000008F913F912F910F900FBE0F901F901895C9
:1010100026E8230F0296A11DB11DD2CF2F923F9239
:101020004F925F926F927F928F929F92AF92BF92F8
:10103000CF92DF92EF92FF920F931F93CF93DF93A4
:10104000812C37E5E32E32E0F32E49E0C42E4DE348
:10105000D42EAA24AA94BA2C10E000E022242394CF
:10106000312C502E811021C180917E0190E0002E04
:1010700002C0959587950A94E2F720915B0222239E
:1010800049F180FD09C085E0809FF001819FF00D4E
:101090001124E55DFE4F10820F5F1F4F04301105D4
:1010A00001F7F1E08F1213C0DF91CF911F910F91E3
:1010B000FF90EF90DF90CF90BF90AF909F908F9078
:1010C0007F906F905F904F903F902F90089588246D
:1010D0008394C2CF26E3209FE001219FD00D1124ED
:1010E000C158DE4F80959095282F2170922EEEA545
:1010F000EE23B1F08FA59E2F9370891708F4DDC001
:10110000F0E0F595E795F595E795EE0FFF1FE455AF
:10111000FF4F8591949190933C0180933B011FA6D2
:101120009CA99923F9F08DA9292F2F77022E000C65
:10113000330B821713060CF4CAC08A8197FFC0C014
:1011400081508A838A818111BDC081E08A83EA81CE
:10115000F0E0EE0FFF1FE455FF4F859194919EA3A1
:101160008DA31DAA58A5552319F13AA529A531111A
:1011700019C0422F407426FFADC08DA19EA1850FDE
:10118000911D57FD9A9527FDAAC097FDA6C044233F
:1011900009F4A7C0863B44E2940714F085EB94E27F
:1011A0009EA38DA32F73321708F09DC03F5F3AA70F
:1011B0009BA5992371F0EA81EE2359F08DA52CA50A
:1011C000482F4F71322F3F71431708F08EC08F5F49
:1011D0008DA749A9442311F13AA9632F607436FF02
:1011E000B0C08DA19EA12BA950E027FFADC0840FF8
:1011F000951F97FDACC0662309F4ADC0863BE4E2C1
:101200009E0714F085EB94E29EA38DA33F71822F7D
:101210008F71831708F0A1C02F5F2BAB89A19AA112
:10122000009709F4A1C08F3F980719F001979AA37E
:1012300089A3992009F492C28091020190E0002EC6
:1012400002C0959587950A94E2F780FD87C28FA129
:1012500023E0521276C290E09595879580933A01EB
:1012600081101FCF80910201807F09F015CF8091FE
:101270009F019091D501890F90910B02890F909158
:101280004102890F09F46DC2CFE7D1E088A10E9425
:101290001105998388831AA219A2E696EC16FD0619
:1012A000A9F780EF80930201F7CE809101018013AE
:1012B000F3CE982CC3E4D1E01ACF8F5F8FA730CF45
:1012C0008F5F3FCF803408F442CF8FE33FCF8F5FF3
:1012D0008DAB48CF8FA190E052CF90E080E04111DC
:1012E0005FCF8FA35FCF1AA663CF807EF1F480E239
:1012F0008DA78DA5807E51F09F3F09F1292F229562
:101300002F70E20F803411F49F70E90F88A9F0E08C
:10131000E80FF11D87FDFA95EE0FFF1FE455FF4F13
:10132000859194919EA38DA354CF803231F426FDF4
:1013300004C09F3F11F080E4DBCF1DA6DACFE0E0D0
:10134000E1CF8FA190E04FCF841B950B52CF90E05F
:1013500080E0611159CF8FA359CF27FF02C01BAA8C
:101360005DCF80E88BAB5ACFC8010496622C01C0D8
:10137000660C8A95EAF7C101002E01C0880F0A9415
:10138000EAF7782E709444244A9488819981BC01AC
:101390006F5F7F4F79836883FC0144914034E8F4A8
:1013A0004A83442319F088A9480F4A83EA81F0E070
:1013B000EE0FFF1FE455FF4F859194919EA38DA3DF
:1013C00089A5811102C08FA58FA38CA585FD1DA6BF
:1013D00089A19AA10097C9F226CF403A08F018C116
:1013E000E42FE054FF0BED30F10509F4B9C00CF027
:1013F00049C0E630F10509F492C054F5E230F10538
:10140000B9F08CF4309709F480C0319709F702964F
:1014100099838883FB01649168A780E0413409F0D7
:1014200080E489A7D5CFE430F10589F30CF477C0C7
:10143000FB01649168A79C012D5F3F4F398328838E
:10144000FC013296E491453409F467C0E9A7C0CFA6
:10145000E930F10509F472C04CF4E730F10509F404
:1014600060C0389709F0B4CF1BA6B2CFEB30F105BE
:1014700009F46DC00CF469C0029699838883FB015E
:1014800064916CC0E431F10509F487C0ACF4E0313B
:10149000F10509F467C04CF4EE30F10509F462C0BF
:1014A0003F9709F095CF19AA93CFE231F10509F4DE
:1014B0006DC0CCF31CAA8CCFEC35F10509F475C0D6
:1014C00064F4E531F10581F2779709F081CF029656
:1014D00099838883FB0164917BCFEE35F10509F494
:1014E0007DC00CF475C0EF35F10509F071CF88208F
:1014F00009F485C01FA2BAA2A9A24092010180915D
:101500007E01872180937E0163CF02969983888331
:10151000FB0164916FA36FA75BCFE06497CF18A620
:1015200057CFFB0164916BA79C012D5F3F4F39831F
:101530002883FC013296E491ECA74ACF0296998366
:101540008883FB0164916EA743CF1EA641CF02960C
:1015500099838883FB01849168A9680F68AB38CFB1
:1015600018AA36CFFB012591349129AB9C012D5F40
:101570003F4F39832883FC0132962591349180E0D6
:101580004E3409F080E4820F8AAB22CF0296998311
:101590008883FB0164916CAB1BCF4BA602969983A9
:1015A0008883FB0164916CA713CF0296998388838B
:1015B000FB016491E0917D016E0F60937D0170E00D
:1015C000C6010E9410107093400160933F0100CF4C
:1015D000029699838883FB016491EFCFAFE7B1E076
:1015E000E881F981CF01019699838883E4919096EF
:1015F000EC939097D696EA16FB0691F7E9CE809188
:1016000002018625809302011FA2BAA2A9A2E0CE00
:10161000403E28F44F59550B5AA349A3D9CE403E1A
:10162000A9F4DE0190E080E09695982F88279795A1
:101630008795ED91FD91E4912E2F2F77822BE7FD79
:10164000F3CF8F5B9F4F9AA389A3C2CE4C3F08F480
:10165000BFCE24E0240F223008F039C04C3FA9F15E
:10166000029699838883FB016491E881F9819F0147
:101670002F5F3F4F39832883E4915CA15E17F1F01F
:101680004F8D842F90E0DE01A80FB91F7BA15196EA
:101690007C93519758965C93880F991FDE01A80F91
:1016A000B91F8091790190917A01281B390B14960A
:1016B0003C932E9313974F5F4F8FECA36BA38CA19A
:1016C0000E9411059983888383CE60E0CECFDE012E
:1016D00090E080E04E3F19F58BA181111DC0EF8D88
:1016E000EE2369F3E150EF8FF0E0DF01AA0FBB1F9B
:1016F000AC0FBD1F8091790190917A0113962D91C5
:101700003C91820F931F99838883EC0FFD1F818981
:101710008BA3808D8CA35CCE81508BA3D0CF96956C
:10172000982F882797958795ED91FD91E4913E2F0D
:101730003F77832BE7FDF3CF680F791F79836883A9
:1017400047CE95E0909FF001919FF00D1124E55D4B
:10175000FE4F2DA13EA132832183808381109CCC3A
:1017600081CD80910101843008F496CC88EDEFE7BB
:10177000F1E011928A95E9F7109272008DCC2F92C8
:101780002FB62F9320912A01209520932A0109F04A
:1017900090C0BF93AF939F930F921F92B1E00090C0
:1017A0003B0110903C01000C111C17FC0B2616FC91
:1017B0000B2600923B0110923C01912DAA2720910B
:1017C0002C0100902E01020E00922E0120912D017D
:1017D00010902F01121E10922F0110902F01212D19
:1017E000220F2121B0912B0127FDB195AB0F209144
:1017F000310100903301020E009233012091320139
:1018000010903401121E1092340110903401B091E6
:10181000300117FCB195AB0F2091360100903801D3
:10182000020E009238012091370110903901121EEA
:1018300010923901209139012058B09135012B02C5
:10184000A10DB0913A0197FDB195AB0FB091000198
:10185000AB0FA093CF00B0914201A091410111972D
:1018600029F0B0934201A09341011EC0B091400104
:10187000A0913F01B0934201A093410178943F931E
:101880004F935F936F937F938F939F93EF93FF9308
:1018900011240E940E08FF91EF919F918F917F91EB
:1018A0006F915F914F913F911F900F909F91AF91DA
:1018B000BF912F912FBE2F901895EF92FF920F930B
:1018C0001F93CF93DF93F82E192FE62E042F81E07C
:1018D000860F880F0E94770383E00E947703CF2D45
:1018E000D12FEC0EFD2EF11CCE15DF05B9F007FF50
:1018F00013C0FE0184910E947703182F80E00E949C
:101900007703812321968111EFCFDF91CF911F9132
:101910000F91FF90EF9008958881EDCF81E0F5CF92
:10192000EFE6F2E01382128288EE93E0A0E0B0E0EE
:1019300084839583A683B7838BE191E09183808331
:101940008FEF9FEF958784870895CF93DF9300D023
:101950001F92CDB7DEB7789484B5826084BD84B51C
:10196000816084BD85B5826085BD85B5816085BD9A
:1019700080916E00816080936E0010928100809152
:1019800081008260809381008091810081608093DA
:10199000810080918000816080938000809191001F
:1019A000826080939100809191008160809391008A
:1019B000809190008160809390008091C10084604C
:1019C0008093C1008091C10082608093C1008091AA
:1019D000C10081608093C1008091C30081608093C9
:1019E000C3008091C00082608093C0008091C200DB
:1019F00081608093C20080917A00846080937A0035
:101A000080917A00826080937A0080917A00816070
:101A100080937A0080917A00806880937A00109297
:101A2000CC0210926C0210926E028091D7008160FD
:101A30008093D70080EA8093D80089B5806189BD02
:101A400089B5826089BD09B400FEFDCF61E070E018
:101A500080E090E00E942E048091D8008F7C80610D
:101A60008093D8008091E000807F8093E000809197
:101A7000E1008E7E8093E1008DE08093E200559A34
:101A8000209A81EC80937C0085B1806F85B984B108
:101A9000877E84B984B1876E84B95E9A5F988AB173
:101AA000806D8AB9769A6E9881B3806F81BB899870
:101AB00080B38D7080BB80E58CBD81E08DBD85E0FD
:101AC00090E00E94E8045F9A85E090E00E94E804BC
:101AD0005E985C98ECE2F1E084918EBD00000DB45C
:101AE00007FEFDCF319641E0E933F407A9F75C9A90
:101AF00081E8809364008091650081608093650037
:101B000080E00E9498020E94ED0487FF15C05C9857
:101B100085EA8EBD00000DB407FEFDCF5C9A2E98BD
:101B20002F982D988091640080628093640081E0FA
:101B300083BF889513BEFCCF0E94ED0482FF48C08E
:101B40002D980E94ED0484788438E1F40E94E60424
:101B500088EC90E00E94E8042F9882E090E00E94D8
:101B6000FA0F8F3F29F06FEF82E090E00E940210A1
:101B700084EF91E00E94E8042F9A0E94ED0484789B
:101B80008438D9F30E94ED0484718431E1F40E9419
:101B9000E60488EC90E00E94E8042E9882E090E051
:101BA0000E94FA0F882329F060E082E090E00E9412
:101BB000021084EF91E00E94E8042E9A0E94ED0446
:101BC00084718431D9F388EC90E00E94E804B4CFAA
:101BD0000E94E60482E090E00E94FA0F882309F454
:101BE000BEC00E94F50481E090E00E94FA0F84706C
:101BF000982E81E090E00E94FA0F81FF13C09110AF
:101C00002E9881EF9FEF9B838A8308E010E0ACE67B
:101C1000EA2EF12C0E94ED0486FFA4C02E9A2F9A82
:101C20000E94E60482E390E00E94E8040E94ED0432
:101C30008111F8CF80E1809303010E94F504109296
:101C4000720081E090E09093420180934101EFE7C0
:101C5000F1E028EDDF011D922A95E9F720EF2093AE
:101C6000020110925B0210927E012FEF209301017E
:101C700039E130937D0141E752E0509340014093B8
:101C80003F0190933C0180933B01909347028093E6
:101C9000460282E48093C00081E08093C1002093DB
:101CA000D10080E88093CF00E9EEF1E0B491B983F0
:101CB0008AEE91E090937C0180937B01EB2FF0E022
:101CC000EE0FFF1FE651FE4FFB83EA83CF01049620
:101CD00090937A01809379016FE7E62E61E0F62E0A
:101CE00010E000E0EA81FB81E00FF11F84910E9487
:101CF0001105D7018D939C930F5F1F4FB6E3EB0E39
:101D0000F11C0430110571F784E0809372002224E5
:101D1000239429E0822E24E0922E0AE014E03FE48E
:101D2000332E40E0E42E40E0F42ECC24C3948FB751
:101D3000F89440915F02509160026091610270914D
:101D400062028FBFB0905902BB2009F4A4C0109268
:101D50005902E114F10459F30E940000E8CF3E98C3
:101D60003F9841CF992031F0AA81BB81149711F49B
:101D70002E9A2F9881E00E9498022A813B8137FF9A
:101D800003C0319521953109277033278A819B81C2
:101D900097FD0796F3E095958795FA95E1F76A80A8
:101DA0007B8077FE05C00197A801421B530B9A0167
:101DB000BC017695762F66277795679563537D4F9F
:101DC000B0E0A0E02801421A530A8E3F5FEF95076A
:101DD00009F43CC048E550E0FD01EF56FE4F5F01BD
:101DE0003B01F0E86F0E711C8F3F9807A1F0F501E1
:101DF000E41BF50BE4916701C41AD50AC60ED71E81
:101E0000F0E01F01022E01C0220C0A94EAF7F6014D
:101E100080802828208221153105A9F0F501E41BD6
:101E2000F50BE4916701C41AD50AC60CD71CF0E083
:101E30001F01042C02C0359427940A94E2F7F6019E
:101E40008080282820824150510971F60196A85AB5
:101E5000BF4F60587F4FA03BB10509F0B6CF80E07F
:101E60000E9498028FE090E00E94E8044A815B8122
:101E70004F5F5F4F5B834A834931510509F0CACEFA
:101E8000992011F02F9A2D9880E991E00E94E804A2
:101E90000E94E604C7CE80915A02E42FE81B8E2FE1
:101EA00090910301E91740F48F5F891708F051CF33
:101EB00023BE889513BE4DCFC092590240935A025B
:101EC0008091570290915802019690935802809306
:101ED0005702D0905D02D0925C020E94ED04582E11
:101EE0008B2DEDECF2E081118FEF00248193819333
:101EF000819381930394D1F7F4012491F8018491A3
:101F00009FE4492E231508F4422E50925D0291E081
:101F1000382F377009F490E0869586958695980F4E
:101F2000973008F096E09E5F99838BE0A82E84E0BE
:101F3000B82E82E061E371E030E06980861571F1CE
:101F4000DB01A353BD4F50E040E0441508F5F50117
:101F5000E40FF51FE49190E1E99F300111247B82A9
:101F60006A8287FF0EC03D01E0E86E0E711CF3012E
:101F70009081FB819F2BF30190834F5F5F4F119600
:101F8000E4CF7C90FA817F2A7C928730B4F7EBCF44
:101F90008F5FA20EB31E60587F4FCFCFD2FC0DC013
:101FA00052FE0BC080915B028823F1F010925B021D
:101FB0008091720084608093720080915C0283FD46
:101FC0000FC080915D0283FF0BC080915B0288236C
:101FD00071F010925B0280917200846080937200B5
:101FE00080E00E949802B5CE0E94F804E6CF0E94DD
:101FF000F804F6CFF999FECF92BD81BDF89A9927E2
:1020000080B50895262FF999FECF1FBA92BD81BDE4
:1020100020BD0FB6F894FA9AF99A0FBE019608956A
:1020200097FB072E16F4009407D077FD09D00E9485
:10203000241007FC05D03EF4909581959F4F08959C
:10204000709561957F4F0895AA1BBB1B51E107C096
:10205000AA1FBB1FA617B70710F0A61BB70B881F38
:10206000991F5A95A9F780959095BC01CD010895C7
:10207000EE0FFF1F0590F491E02D0994F894FFCF27
:1020800080FFF010FFFFFFFF00E1000000000000F4
:1020900000C1808100000000000000F6026104170A
:0A20A000030C035D031B033903006A
:00000001FF
